:1000000012C017C016C015C014C013C012C011C052
:1000100010C00FC00EC00DC00CC00BC00AC009C07C
:1000200008C007C006C011241FBECFEDCDBF28D029
:100030004DC0E6CF80E090E0089508959C0180E0F7
:1000400090E040E050E0E4E0220F331F441F551FD2
:10005000EA95D1F719D0DA01C9010197A109B109CF
:10006000892F9A2FAB2FBB2782B9215029B9089528
:100070005D9BFECF8CB908955F9BFECF8CB1089538
:10008000F89480E090E00895A1E21A2EAA1BBB1B11
:10009000FD010DC0AA1FBB1FEE1FFF1FA217B30754
:1000A000E407F50720F0A21BB30BE40BF50B661F6A
:1000B000771F881F991F1A9469F76095709580952E
:1000C00090959B01AC01BD01CF010895F894FFCF3D
:00000001FF
